:020000040800F2
:10000000780600209D010008D31D0008531B00083E
:10001000D11D0008190900085F2300080000000036
:10002000000000000000000000000000C51F0008E4
:100030001B09000800000000C31F0008C71F0008BC
:10004000B7010008B7010008B7010008B7010008B0
:10005000B7010008B7010008B7010008B7010008A0
:10006000B7010008B7010008B7010008B701000890
:10007000B7010008B7010008B7010008B701000880
:10008000B7010008B7010008B7010008B701000870
:10009000B7010008B7010008B7010008B701000860
:1000A000B701000869200008B7010008B70100087F
:1000B000B7010008B7010008B7010008B701000840
:1000C000B7010008B7010008B7010008B701000830
:1000D000B7010008B7010008B7010008B701000820
:1000E000B7010008B7010008B7010008B701000810
:1000F000B7010008B7010008B7010008B701000800
:10010000B7010008B7010008B7010008B7010008EF
:10011000B7010008B7010008B7010008B7010008DF
:10012000B7010008B7010008B7010008B7010008CF
:10013000B7010008B7010008B7010008B7010008BF
:10014000B7010008B7010008B7010008B7010008AF
:10015000B7010008B7010008B7010008B70100089F
:10016000B7010008B7010008B7010008B70100088F
:10017000B7010008B7010008B7010008000000003F
:10018000B7010008B7010008DFF80CD000F01EFB33
:10019000004800470D2D00087806002006488047DB
:1001A00006480047FEE7FEE7FEE7FEE7FEE7FEE75C
:1001B000FEE7FEE7FEE7FEE74D20000889010008A4
:1001C0002DE9F05F0546002092469B46884606468C
:1001D000814640241BE0284641464746224600F01F
:1001E0009CF953465A46C01A914110D311461846FD
:1001F000224600F083F92D1A67EB01084F4622468C
:100200000120002100F07AF917EB00094E41201E71
:10021000A4F10104DFDC484631462A464346BDE8E6
:10022000F09FD2B201E000F8012B491EFBD27047CB
:100230000022F6E710B513460A4604461946FFF7B2
:10024000F0FF204610BD2DE9FE4F804681EA0300F5
:10025000C00F0C46009021F0004123F00045B8EBA0
:100260000200A94105D24046214690461C460B4655
:10027000024623F00040104347D0270DC7F30A0081
:10028000C3F30A510290401A019040286BDAC3F37D
:10029000130040F4801B0098924620B10023D2EB5B
:1002A000030A63EB0B0B01985946C0F1400250461C
:1002B00000F024F906460D4650465946019A00F0D2
:1002C0003CF910EB08006141002487EA115284EAEE
:1002D000E7731A4340D0009A62B3019A012A4FEAA9
:1002E000075215DC001B61EB02014FF0004202EAED
:1002F0000752CDE90042001C41F5801132462B46E1
:1003000000F073F903B0BDE8F08F40462146F9E7ED
:10031000001B61EB0201001C41F5801300185B41DA
:100320002018A2F5001747EB030140EAD570B61973
:100330006D4111E06D084FEA360645EAC0754FEA97
:100340000752001B61EB0201001C41F580114908B6
:100350004FEA30000019514132462B4603B0BDE848
:10036000F04F00F033B90098012240000023D0EB99
:10037000020263EBE073009821464FEAE074B8EBA9
:10038000000061EB0401E9E783F000435BE781F0E3
:10039000004158E72DE9F04D81EA030404F0004BD9
:1003A00021F0004514464FF0000A23F0004150EAC6
:1003B000050220D054EA01021DD0C5F30A570246B7
:1003C000C5F31303C1F31300C1F30A5640F48015BB
:1003D00043F48013A7EB0608101BD64608F2FD383D
:1003E00073EB050002D308F1010801E092185B41AC
:1003F000B8F1000F03DA00200146BDE8F08D0020BF
:100400004FF48011064684460EE0171B73EB050778
:1004100005D3121B63EB050306434CEA010C4908A4
:100420004FEA300092185B4150EA0107EDD152EAE1
:10043000030012D082EA040083EA0501084305D0D4
:10044000101BAB4106D20122002306E000224FF030
:10045000004302E06FF0010253101AEB06004CEB70
:10046000085110EB0A0041EB0B01BDE8F04D00F024
:10047000ADB800F0004230F000400AD0C10D01F5E7
:100480006071C0F3160042EA0151C20840071143EF
:10049000704700200146704701F0004330B421F05E
:1004A000004150EA010206D00A0DA2F56072C1F3C4
:1004B0001301002A02DC30BC00207047440F44EADC
:1004C000C104C100E01830BC00EBC25000F047B8D6
:1004D00030B50B46014600202022012409E021FA14
:1004E00002F59D4205D303FA02F5491B04FA02F511
:1004F0002844151EA2F10102F1DC30BD202A04DBE4
:10050000203A00FA02F1002070479140C2F1200326
:1005100020FA03F3194390407047202A04DB203A65
:1005200021FA02F00021704721FA02F3D040C2F113
:1005300020029140084319467047202A06DBCB175A
:10054000203A41FA02F043EAE07306E041FA02F38E
:10055000D040C2F12002914008431946704700295B
:10056000A8BF7047401C490008BF20F00100704739
:1005700010B4B0FA80FC00FA0CF050EA010404BF99
:1005800010BC704749B1CCF1200421FA04F411FAEF
:100590000CF118BF012121430843A3EB0C01CB1D33
:1005A0004FEA00614FEA102042BF002010BC7047A4
:1005B00000EBC35010440029A4BF10BC7047401C7E
:1005C000490008BF20F0010010BC704710B5141E90
:1005D00073F1000408DA401C41F1000192185B41FC
:1005E0001A4301D120F0010010BD2DE9F04D9246D3
:1005F0009B4611B1B1FA81F202E0B0FA80F22032EA
:100600009046FFF77BFF04460F4640EA0A0041EAA6
:100610000B0153465A46084313D0114653EA0100D2
:1006200019D0C8F140025046FFF777FF05460E4645
:10063000504659464246FFF761FF084305D0012066
:1006400004E020463946BDE8F08D0020054346EA27
:10065000E0762C4337430A986305E40AA0EB0800D0
:100660000022FD0A44EA47540A3002D50020014620
:10067000E9E7010510196941DDE9084500196941FB
:10068000BDE8F04DA2E72DE9FE4F81EA030404F036
:10069000004421F0004100944FF0000B23F0004390
:1006A00050EA01045ED052EA03045BD0C3F30A545B
:1006B000C1F30A552C44A4F2F3340194A0FB025474
:1006C000C1F3130141F48011C3F3130343F4801306
:1006D00001FB024400FB034E840A970A44EA81545A
:1006E00047EA8357A4FB076802958D0A05FB078537
:1006F0004FEA932C04FB0C542705029D4FEA065841
:1007000047EA1637B5EB08056EEB070C870E920E1D
:1007100047EA811742EA8312A7FB0201B6EB0B01FD
:1007200064EB00042B0D43EA0C335E1844EB1C50C1
:10073000DA465146E7FB0201C5F313044FEA0B33D7
:1007400043EA14534FEA0432019C43EA0603A4F13E
:100750000C040294009CCDE900B4FFF746FF03B0FF
:10076000BDE8F08F00200146F9E7C1F30A52C1F35A
:10077000130140F2FF3341F480119A4202DA002063
:100780000146704740F233439A42A2F2334202DC00
:100790005242FFF7C2BEFFF7B1BE000030B5041EE3
:1007A00071F1000404DB4FF00044404264EB0101AE
:1007B000141E73F1000405DB1C464FF00043524247
:1007C00063EB0403994208BF904230BD064C074DCD
:1007D00006E0E06840F0010394E807009847103411
:1007E000AC42F6D3FFF7D4FCD43A0008F43A000840
:1007F000464910B54A6822F440324A604A68436864
:100800001A434A6001684A6822F480724A600168AB
:100810004A68036942EA03224A6001684A6822F092
:1008200040724A6001684A6883681A434A600168F6
:100830008A6822F400628A6001688A68C3681A4381
:100840008A60816A6FF07062D14201688A6822F022
:1008500070628A6001688A680CD0836A1A438A6071
:1008600001688A6822F040528A6001688A68C36A17
:100870001A4301E022F040528A6001688A6822F03F
:1008800002028A6001688A68037E42EA43028A6043
:1008900090F82010002901684A680FD042F40062E5
:1008A0004A6001684A6822F460424A6001684A6806
:1008B000174C436A04EB43331A4301E022F400620D
:1008C0004A600168CA6A22F47002CA620168CA6A90
:1008D000838B104C04EB03531A43CA6201688A6885
:1008E00022F400728A6001688A6890F8303042EA27
:1008F00043228A6001688A6822F480628A60016803
:100900008A68406942EA8020886010BD0023014067
:1009100000E0FFFF0000F0FFFEE7704778B500241D
:10092000009490F83C20012A19D0012280F83C2044
:100930000A6807230568092A13D9EE680A3A02EB08
:10094000420293409E43EE600B788A680A3B03EBB9
:1009500043039A400368DD682A43DA6010E002200E
:1009600078BD2E6902EB420293409E432E610B78C4
:100970008A6803EB43039A4003681D692A431A619E
:100980004A681F23072A13D205686E6B521E02EBBA
:10099000820293409E436E630B790A885B1E92B27B
:1009A00003EB83039A4003685D6B2A435A6327E095
:1009B00005680D2A12D22E6BD21F02EB82029340E1
:1009C0009E432E630B790A88DB1F92B203EB8303ED
:1009D0009A4003681D6B2A431A6311E0EE6A0D3AD0
:1009E00002EB820293409E43EE620B790A880D3B34
:1009F00092B203EB83039A400368DD6A2A43DA620A
:100A0000164B0568144A9D4206D10D68122D03D17C
:100A1000556845F48005556005689D4218D10B68FE
:100A2000102B01D0112B13D1536843F400035360F2
:100A3000096810290CD10A490A4A0968B1FBF2F188
:100A400001EB8101490000E0491E00910029FBD122
:100A500080F83C40002078BD002301400020014088
:100A60002000002040420F000068C06C704770B545
:100A700004004FF0000503D0206C002610B107E001
:100A8000012070BD204600F01DF8666484F83C60CB
:100A9000206CC00610D4206C20F4885040F0020076
:100AA00020642046FFF7A4FE6664206C20F002005C
:100AB00040F00100206400E0012584F83C602846F5
:100AC00070BD000010B586B0044614216846FFF7DB
:100AD000AFFB1149206888421CD1104800210268F0
:100AE00042F480720260006800F4807005900B4848
:100AF0001438026842F001020260006800F0010050
:100B00000590022000900320CDE9010169460448C8
:100B100000F0E2F806B010BD002001404438024069
:100B2000000002402DE9F041044600680D4681684E
:100B30004FF0000749050BD58068C00508D5206C2B
:100B400040F02000206484F83C700120BDE8F08172
:100B500000F09EF906460FE0681C0DD025B100F0AC
:100B600097F9801BA84207D9206C40F0040020644C
:100B700084F83C700320E9E7206800688007EBD523
:100B800021686FF012000860206C40F4007020644F
:100B90002068816811F0405F13D1217E89B9C16A54
:100BA00011F4700F02D0806840050AD4206C20F444
:100BB00080702064206CC00403D4206C40F00100DD
:100BC00020640020C2E7000018B50021009190F8D1
:100BD0003C20012A07D0012280F83C20026893685B
:100BE000DB0702D011E0022018BD936843F0010337
:100BF00093602A4A2A4B1268B2FBF3F202EB4202DC
:100C000000E0521E0092002AFBD102689368DB07C5
:100C100041D0036C40F20164A34343F48073036446
:100C200053685B0505D5036C23F4005343F48053EC
:100C30000364036CDB0404D5436C23F006034364B4
:100C400000E0416480F83C1016496FF02203136005
:100C500049680068CA06144906D088421BD18168D9
:100C600011F0405F13D016E08842F8D00F4A90424E
:100C700003D1D1F80423D206F1D00D4A90420AD113
:100C8000D1F8041301F01F011029E8D303E08168B3
:100C900041F080418160002018BD0000200000204C
:100CA00040420F000023014000200140002101408C
:100CB0000022014070B5044600F0EAF80546601CC9
:100CC00002D004480078044400F0E2F8401BA0423F
:100CD000FAD370BD140000202DE9F84F00224FF028
:100CE000010803254FF00F0E0B6808FA02F42340A9
:100CF000A3426ED14E68012E05D0022E03D0112ED4
:100D000001D0122E12D186684FEA420C05FA0CF778
:100D1000BE43CF6807FA0CF7374387604668A6439F
:100D20000C79C4F30014944034434460C6685700FF
:100D300005FA07FC8C6826EA0C06BC403443C46004
:100D40004C68022C01D0122C13D1D40800EB84047F
:100D5000A346D4F8209054074FEAD46A0EFA0AF654
:100D600029EA06090E6906FA0AF646EA0906CBF8E8
:100D7000206006680C7926EA0C0604F00304BC40E7
:100D8000344304604C68E40065D5364C266846F46C
:100D900080462660246822F0030604F48044009410
:100DA000314C3444A446D4F808489607370F0EFA5D
:100DB00007F6B4432D4EB04201D1002624E02C4E5C
:100DC000B04201D101261FE02A4EB04202D10226D4
:100DD0001AE040E0284EB04201D1032614E0274E2D
:100DE000B04201D104260FE0254EB04201D10526C4
:100DF0000AE0244EB04201D1062605E0224EB04260
:100E000001D1072600E00826BE402643CCF808683A
:100E10001E4E34684F689C43FF0300D51C4334606A
:100E20001A4C241D26684F689E43BF0300D51E43FD
:100E30002660164E083634684F689C43FF0200D582
:100E40001C433460114E0C3634684F689C43BF021B
:100E500000D51C433460521C102AFFF445AFBDE896
:100E6000F88F00004438024000300140000002408A
:100E70000004024000080240000C02400010024042
:100E80000014024000180240001C0240003C0140D7
:100E90000148806870470000140000200248816803
:100EA0000278114481607047140000200B4810B58F
:100EB000016841F400710160016841F480610160E2
:100EC000016841F480710160032000F071F8002096
:100ED00000F006F800F024F8002010BD003C0240AD
:100EE00070B50D4D04464FF47A712878B1FBF0F0DF
:100EF0000A490968B1FBF0F000F0ECFA48B9102C8F
:100F000007D200222146501E00F032F800206C600B
:100F100070BD012070BD00001400002020000020E2
:100F20000B4882B0016841F480410160006800F420
:100F3000804000900648001F016841F08051016028
:100F4000006800F080500090062002B000F030B839
:100F500044380240002809DB00F01F0201219140C3
:100F60004009800000F1E020C0F800117047000047
:100F7000F0B40E4B1B680C46C3F30223C3F1070504
:100F8000042D00D90425191D072901D2002300E0F2
:100F9000DB1E012606FA05F1491E214099409E40BC
:100FA000761E16403143F0BC01F0EEB90CED00E0C6
:100FB000064900F0070208684FF6FF03184040EAB0
:100FC0000220034A10430860704700000CED00E067
:100FD0000000FA052DE9F0470E46050065D0DFF860
:100FE0001481D8F80000F7B200F00F00B04207D229
:100FF00088F80070D8F8000000F00F00B04254D11B
:1010000028683D4C810712D5400703D5206840F47D
:10101000E05020602878000703D5206840F4604045
:1010200020602068A96820F0F0000843206028783C
:10103000C0072DD0304968680839012812D002282D
:1010400013D0032811D00968890700292DDA2168F7
:1010500021F0030101432160FFF71AFF814641F2AD
:10106000883A0EE009688903EFE709688901ECE72F
:10107000FFF70EFFA0EB0901514502D90320BDE89F
:10108000F0872068696800F00C00B0EB810FEFD1A9
:10109000D8F80010404601F00F01B14207D907709F
:1010A000006800F00F00B04201D00120E7E7287887
:1010B000400705D52068E96820F4E0500843206027
:1010C0002878000706D52068296920F4604040EAA6
:1010D000C100206000F01EF82168084AC1F3031126
:1010E000515CC8400649086006480068FFF7F8FEF2
:1010F0000020C4E7003C024008380240C43A00081F
:1011000020000020180000200148006870470000FF
:1011100020000020154810B5006810F00C0214489B
:1011200013D01449042A0FD0082A0ED10F4C241FC3
:101130002268236802F03F025B0207D52068C0F3F3
:101140008810A0FB010106E0084610BD2168C1F32C
:101150008811A1FB00010023FFF732F82168C1F3D9
:101160000141491C4900B0FBF1F010BD08380240B4
:101170000024F40040787D012DE9F84F04006ED082
:101180002078DFF83C93C007A9F104054AD009F1A3
:1011900004000168C1F38101012908D00068C0F38F
:1011A000810002280AD1D9F80000400206D528683B
:1011B000800337D560680028E1D033E06068B0F57F
:1011C000803F10D0B0F5A02F286810D020F48030D8
:1011D0002860286820F4802028606068A8B1FFF7A4
:1011E00057FE06460DE0286840F48030F4E740F4EE
:1011F00080202860F7E700BFFFF74AFE801B6428C5
:1012000073D828688003F7D50CE0FFF741FE064647
:1012100005E000BFFFF73CFE801B6428F0D828687B
:101220008003F7D42078DFF89C8280074FF0000A13
:101230003ED5A348001D016811F00C0F08D00068CE
:10124000C0F3810002280BD1D9F80000400207D476
:101250002868800716D5E068012800D112E02BE14C
:10126000E068B8B10120C8F80000FFF711FE06469B
:1012700005E000BFFFF70CFE801B0228C0D82868DD
:101280008007F7D52868216920F0F80040EAC100FE
:1012900028600DE0C8F800A0FFF7FAFD064604E05C
:1012A000FFF7F6FD801B02281FD828688007F7D4B7
:1012B0002078000722D5824E83486169703671B16B
:1012C00001210160FFF7E4FD074604E0FFF7E0FDC0
:1012D000C01B022809D830688007F7D50EE0C0F897
:1012E00000A0FFF7D5FD074605E082E0FFF7D0FD3F
:1012F000C01B02287DD830688007F7D420784007CB
:1013000068D5DFF8BCB100270BF13C0BDBF800001F
:10131000C0000BD4DBF8001041F08051CBF8001076
:10132000DBF80000012700F080500090674E306825
:10133000C00510D4306840F480703060FFF7A8FD1D
:10134000009005E0FFF7A4FD0099401A022850D84C
:101350003068C005F6D55A4EA0686C3601280FD00B
:101360000528306810D020F001003060306820F08F
:1013700004003060A068B8B1FFF78AFD00900FE06C
:10138000306840F00100F4E740F004003060F7E717
:10139000FFF77EFD0099411A41F28830814266D8FC
:1013A00030688007F4D50EE0FFF772FD009007E08B
:1013B000FFF76EFD0099411A41F28830814256D8FC
:1013C00030688007F4D42FB1DBF8001021F0805191
:1013D000CBF80010A069C8B33949091D0968C1F3E9
:1013E000810102294AD00228504607D0C8F860007F
:1013F00000E03CE0FFF74CFD04463BE04746C8F800
:101400006000FFF745FD064605E000BFFFF740FD21
:10141000801B02282BD828688001F7D4D4E9070163
:101420000843A16A2A4A490802EB0141626A41EA7B
:101430008211084394F82C1040EA0161C9F80010A9
:1014400001203866FFF724FD044606E036E000BFC1
:10145000FFF71EFD001B022809D828688001F7D578
:101460002CE000BFFFF714FD001B022802D9032067
:10147000BDE8F88F28688001F4D41FE00128F7D078
:10148000D9F80000E26900F48001914214D1226A87
:1014900000F03F0191420FD147F6C071626A0140EE
:1014A000914209D1A26A00F44031914204D1E16A2B
:1014B00000F07060884201D00120D9E70020D7E712
:1014C0000438024000004742800E4742007000404E
:1014D0000000FFFF10B5401EB0F1807F01D3012056
:1014E00010BD4FF0E02460610F21601700F04CFF49
:1014F0000020A06107202061002010BD70477047C8
:1015000010B590F83C20012A22D0012280F83C201E
:10151000CA688C6822F4407222434C6822F48062CC
:1015200022430C6822F4006222430C6922F48052A8
:1015300022434C6922F400522243C969002322F459
:1015400080420A4301684A6480F83C30002010BDA4
:10155000022010BD70B590F83C20012A32D0012441
:1015600080F83C40022280F83D2003685A689D685C
:1015700022F070060A6832435A60134B02689A429E
:1015800014D0B2F1804F11D0104B9A420ED0104BB4
:101590009A420BD00F4B9A4208D00F4B9A4205D07B
:1015A0000E4B9A4202D00E4B9A4204D1496825F064
:1015B00080031943916080F83D40002180F83C1081
:1015C000084670BD022070BD0000014000040040CC
:1015D00000080040000C00400004014000400140B1
:1015E0000018004010B504460068042200F0B3FD66
:1015F0002068416C41F4004141642068816801F039
:101600000701062903D0016841F0010101600020B3
:1016100010BD10B5040003D094F83D0010B107E0F0
:10162000012010BD002084F83C00204600F00CF89A
:10163000022084F83D00211D206800F01BFD0120E0
:1016400084F83D00002010BD08B500680B498842B1
:1016500012D10B48016841F00101016000680122CC
:1016600000F00100009000211920FFF781FCBDE887
:1016700008401920FFF76EBC08BD000000000140C3
:10168000443802400168CA6842F00102CA6000683A
:10169000816801F00701062903D0016841F00101CA
:1016A00001600020704770B5044690F83C000128A6
:1016B00017D0012584F83C50022084F83D002068B2
:1016C000826822F0770222F47F4282600868502804
:1016D00030D00DDC20284DD005DC98B310283BD14C
:1016E00048E0022070BD302844D0402834D139E091
:1016F000602828D0702806D0B0F5805F2CD0B0F5D7
:10170000005F29D10AE0CB68D1E90121206800F00F
:101710002FFD2068816841F0770109E0CB68D1E9AD
:101720000121206800F024FD2068816841F4804197
:10173000816011E0CA684968206800F0EDFD502121
:10174000206807E016E0CA684968206800F0F5FDE7
:101750006021206800F016FD84F83D50002084F8D8
:101760003C0070BDCA684968206800F0D5FD402182
:101770002068EFE7226801461046EBE7704770B536
:101780000446006801694FF00005C943890715D474
:10179000C168C943890711D4E91E0161012020777E
:1017A000206880698007204602D0FFF7E7FF04E049
:1017B00000F0D6F8204600F058F925772068016936
:1017C000C943490717D4C168C943490713D46FF007
:1017D00004010161022020772068806910F4407FB5
:1017E000204602D0FFF7CAFF04E000F0B9F8204617
:1017F00000F03BF9257720680169C943090716D431
:10180000C168C943090712D46FF0080101610420BF
:1018100020772068C0698007204602D0FFF7AEFF1E
:1018200004E000F09DF8204600F01FF925772068BD
:101830000169C943C90617D4C168C943C90613D48D
:101840006FF010010161082020772068C06910F452
:10185000407F204602D0FFF791FF04E000F080F8BF
:10186000204600F002F9257720680169C943C907BD
:1018700008D1C168C943C90704D1891E0161204646
:1018800000F016F920680169C943090609D4C16846
:10189000C943090605D46FF0800101612046FFF7B6
:1018A0002DFE20680169C943490609D4C168C943AE
:1018B000490605D46FF040010161204600F048F967
:1018C00020680169C94389060BD4C168C9438906E8
:1018D00007D46FF0200101612046BDE87040FFF79A
:1018E0000EBE70BD70B586B0044614216846FEF782
:1018F0009FFC17492068884228D1164800240168B7
:1019000041F002010160016801F0020105910168E6
:1019100041F0010101600068022500F0010005901E
:101920004FF400500090CDE901540126CDE9034663
:1019300069460948FFF7D0F9E8010090CDE9015464
:10194000CDE9034669460548FFF7C6F906B070BD04
:101950000000014030380240000402400000024014
:10196000704770B5044690F83C000D4601280DD034
:10197000012684F83C60022084F83D0042B1042A2C
:1019800018D0082A2AD00C2A4DD139E0022070BD87
:10199000206800F0FFFB2068816941F00801816147
:1019A0002068816921F004018161206881692A69C8
:1019B000114311E0206800F01DFC2068816941F4AA
:1019C000006181612068816921F480618161206802
:1019D00081692A6941EA0221816124E0206800F0DE
:1019E0003FFC2068C16941F00801C1612068C169FC
:1019F00021F00401C1612068C1692A69114311E025
:101A0000206800F061FC2068C16941F40061C16197
:101A10002068C16921F48061C1612068C1692A69B7
:101A200041EA0221C16184F83D60002084F83C0055
:101A300070BD10B5040003D094F83D0010B107E06C
:101A4000012010BD002084F83C00204600F00CF876
:101A5000022084F83D00211D206800F00BFB0120CE
:101A600084F83D00002010BD7047704710B5044653
:101A70000068012200F062FB0B492068884202D016
:101A80000A49884203D1416C41F400414164206815
:101A9000816801F00701062903D0016841F00101C6
:101AA0000160002010BD0000000001400004014062
:101AB00010B52448FFF788F80A212248FFF732F8CA
:101AC0002048FEF7D1FF00EE100A1F4CB8EE400A86
:101AD00084ED030ABDEEC00A10EE100A01F0D2F840
:101AE00084ED030A01F070F91849226991ED060AA4
:101AF000BDEEC00A10EE100A104400EE100A20617C
:101B0000D1ED080AB8EEC00AF4EEC00AF1EE10FA00
:101B100002D8BDEEE00A0CE000EE900A91ED090A51
:101B2000F8EEE00AB4EEE00AF1EE10FA03DBBDEEE7
:101B3000C00A84ED040A03492069483109684863F2
:101B400010BD0000DC010020000000202400002067
:101B50007047FEE710B586B04FF440600124CDE930
:101B600000040020CDE9024069460548FFF7B4F8BB
:101B70000448C0F8A842C0F8AC4206B010BD00004E
:101B800000040240008040422DE9F041064614481E
:101B9000016821F440010160016841F480010160A5
:101BA000104C0027C4F8A8723D464FF00108F00918
:101BB000C4F8AC027006060E0220FFF77BF8C4F8EA
:101BC000A8820220FFF776F8C4F8A8720220FFF777
:101BD00071F86D1CEDB2082DE9D3BDE8F08100006D
:101BE000000402400080404270B50D48016821F4B5
:101BF00040010160016841F480010160094C01204D
:101C0000C4F8AC02C4F8A802042004F52A74FFF753
:101C100051F8002565600420FFF74CF8256070BD81
:101C200000040240008040420E4810B5016821F4D3
:101C300040010160016841F4800101600A4C00200C
:101C4000C4F8A802C4F8AC02042004F52A74FFF713
:101C500031F8012020606060BDE810400420FFF7EB
:101C600029B80000000402400080404270B51248CC
:101C70000024016821F440010160016801600F4DFA
:101C80000126C5F8AC623046FFF714F8C5F8A86223
:101C90000120FFF70FF807E0641CE4B2FA2C03D927
:101CA000FFF7C2FF012070BDD5F82C020028F3D148
:101CB000C5F8A80270BD0000000402400080404248
:101CC0007FB5002412480094019402940F490394B4
:101CD000C0E90014846001250461057680F8204085
:101CE0000C49C0E90A14C561C46080F83040456100
:101CF000FEF7BDFE0095CDE9015469460448FEF7A4
:101D00000DFE0348FEF760FF7FBD0000002001408C
:101D1000DC0100200100000F10B596B000240F94E4
:101D200010941194129413941C2108A81494FEF793
:101D30007FFA20216846FEF77BFA24482249C0E951
:101D4000001440F62721C0E9024104614461846126
:101D5000FFF75FFC4FF480500F900FA91B48FFF76F
:101D6000A2FC1A48FFF765FE139413A917481494B0
:101D7000FFF7F0FB6020CDE908040A940B940C9463
:101D80000D94002208A911480E94FFF7EAFD0A20DD
:101D9000CDE9024000944FF40050CDE904404000EA
:101DA0000790019469460948FFF7AAFB00210748FC
:101DB000FFF75CFE00210548FFF714FC0348FFF71E
:101DC00091FD16B010BD000000000140240200206B
:101DD000FEE7704770B506465FF0000404F1B000FE
:101DE000C0B200F0B8F8012000F0B5F8102000F003
:101DF000B2F80025304600F0CDF86D1CEDB2802D14
:101E0000F8D3641CE4B2082CE8D370BD10B5304898
:101E1000FEF750FFAE2000F09EF8002000F09BF887
:101E2000102000F098F8402000F095F8812000F094
:101E300092F8CF2000F08FF8A12000F08CF8C82095
:101E400000F089F8A62000F086F8A82000F083F8BA
:101E50003F2000F080F8D32000F07DF8002000F053
:101E60007AF8D52000F077F8802000F074F8D920B7
:101E700000F071F8F12000F06EF8DA2000F06BF855
:101E8000122000F068F8DB2000F065F8402000F038
:101E900062F8202000F05FF8022000F05CF88D204E
:101EA00000F059F8142000F056F8A42000F053F880
:101EB000A62000F050F8AF2000F04DF80020FFF70A
:101EC00089FF0021BDE81040084600F031B800004D
:101ED00020A107002DE9F04790468A4605460026D6
:101EE000DFF848901CE02038C7B27E2D04D90AF1F3
:101EF0000100002500F0FF0A5146284600F018F8BE
:101F000007EB4700002409EB4007385D00F042F87A
:101F1000641CE4B2062CF8D3AD1D761CEDB2F6B20B
:101F200018F806000028DED1BDE8F087AC320008C2
:101F300010B50446B031C8B200F00DF8102040EAE8
:101F4000141000F008F804F00F00BDE8104040F055
:101F50000100AFF3008070B505460024FFF744FE92
:101F60007820FFF711FEFFF781FE28B14FF4FA60E9
:101F7000641CA4B28442FBD30020FFF705FEFFF7E8
:101F800075FE2846FFF700FEFFF770FEBDE87040C3
:101F9000FFF74ABE10B50446FFF726FE7820FFF78C
:101FA000F3FDFFF763FE4020FFF7EEFDFFF75EFE57
:101FB0002046FFF7E9FDFFF759FEBDE81040FFF7A7
:101FC00033BE70477047FEF769BF000030B593B06D
:101FD00030216846FEF72CF914210CA8FEF728F9E9
:101FE00018480025016841F080510160006800F048
:101FF000805011901448016841F4804101600068EC
:10200000022400F4804011900120039010200490DD
:10201000009406940820CDE907503420CDE9090446
:1020200004200B906846FFF7A7F80CA90F2081E861
:102030003100E0020F90109001210CA8FEF7CAFFBA
:1020400013B030BD403802400070004005480168C0
:1020500041F47001016003494FF00060803908606D
:102060007047000088ED00E00148FFF788BB0000E2
:1020700024020020F0B50268254C264D264E274F3D
:10208000274B4FF0804CA04209D0604507D0A842B2
:1020900005D0B04203D0B84201D0984204D122F01A
:1020A000700E4A6842EA0E02A0421BD0604519D069
:1020B000A84217D0B04215D0B84213D0984211D0E0
:1020C000184DA8420ED0184DA8420BD0174DA8426B
:1020D00008D0174DA84205D0164DA84202D0164D83
:1020E000A84203D122F44075CA682A434D6922F000
:1020F00080022A4302608A68C2620A688262A04241
:1021000001D0984201D10969016301214161F0BD0B
:10211000000001400004004000080040000C0040A6
:1021200000040140004001400044014000480140DB
:1021300000180040001C00400020004010B501F0D5
:102140001F030121046A99408C430462016A9A408A
:102150001143016210BD10B501F01F030421046A90
:1021600099408C430462016A9A401143016210BD98
:1021700010B5846842EA032224F47F440A432243D0
:10218000826010BD826822F070020A4342F00701AB
:1021900081607047F0B5026A22F001020262036AB0
:1021A00042688469124E24F073050C682C4323F0B6
:1021B00002058B682B430D4DA84201D0B04205D1DA
:1021C00023F00807CB683B4323F00403A84201D067
:1021D000B04205D14D6922F4407215438A692A4301
:1021E00042608461496841630362F0BD00000140C0
:1021F00000040140F0B5026A22F010020262026A95
:10220000436884690D6824F4E64444EA05248D6833
:1022100022F0200242EA05120F4D104EA84201D0D2
:10222000B04206D1CF6822F0800242EA071222F0C3
:102230004002A84201D0B04207D14D6923F4406367
:1022400043EA85038D6943EA8503436084614968F5
:1022500081630262F0BD0000000001400004014003
:10226000F0B5026A22F480720262026A4368C469AD
:1022700022F4007224F073050C68124E2C438D6812
:1022800042EA05220E4DA84201D0B04206D1CF68E5
:1022900022F4006242EA072222F48062A84201D0BE
:1022A000B04207D14D6923F4405343EA05138D69C9
:1022B00043EA05134360C4614968C1630262F0BD2B
:1022C000000001400004014030B5026A22F480524F
:1022D0000262046A4268C3690D6823F4E64343EA74
:1022E00005238D6824F4005444EA0534084DA842BF
:1022F00002D0084DA84204D14D6922F4804242EA3E
:1023000085124260C36149680164046230BD000007
:10231000000001400004014010B5036A046A24F083
:1023200001040462846924F0F00444EA021423F0F6
:102330000A020A438461026210BD10B5036A23F0E9
:10234000100303628369046A23F4704343EA023290
:1023500024F0A00343EA01118261016210BDFEE78F
:102360000FB4084B10B504A902AA039800F0EEF8C8
:10237000044602A9002000F080FC204610BC5DF855
:1023800014FB00007B2C00080907090E002804DB61
:1023900000F1E02080F80014704700F00F0000F119
:1023A000E02080F8141D704702E008C8121F08C121
:1023B000002AFAD170477047002001E001C1121FC6
:1023C000002AFBD1704700002DE9FF5F82B0002199
:1023D000DDE90430020DDDF840B0034318D044F6C7
:1023E0001050A2F2FF3242431514119801281FD059
:1023F000A5EB0B00401C5FEA000A4FF000064E4FB1
:10240000DFF83891B046504615D5CAF1000413E004
:10241000119801244AA3012801D16FEA0B01029807
:10242000119AC0E90031C0E9024206B0BDE8F09F50
:10243000CBF10000DFE704460021404A491842EB97
:102440000450CDE9001012E0E00707D032463B46C9
:1024500040464946FEF717F98046894632463B46D4
:1024600010461946FEF70FF906460F466410002C79
:10247000EAD1DDE90401DDE90023BAF1000F06DA53
:10248000FEF701F942464B46FEF7FDF805E0FDF781
:1024900081FF42464B46FDF77DFF04460E46002273
:1024A000284BFEF77BF903D84FF0FF30014607E0D9
:1024B0000022254B20463146FDF7C5FEFEF755F9B3
:1024C000102409E0002C0ADB0A220023FDF778FE25
:1024D000039B30321A55641E50EA0102F2D1641C8B
:1024E000039AC4F111031444119A012A03D0012262
:1024F00008430DD10AE0084304D000204FF0110B2F
:10250000119072E7A3EB0B056D1E0DE05B4504DD3A
:102510004FF0000205F1010504E003DA4FF000027C
:10252000A5F10105002AECD002981199C0E9023109
:10253000C0E9004579E70000000014400000F03FCA
:10254000300000000000F0430000E03F2DE9FF4FA5
:1025500095B09B468946064600250FE2252877D18F
:1025600000242746F84A0121059400E0044316F8A8
:10257000013F203B01FA03F01042F7D130782A28BE
:1025800011D06FF02F033078A0F13002092A16D84D
:10259000059A44F0020402EB820203EB420210446B
:1025A000761C0590EFE759F8042B0592002A03DA10
:1025B000504244F40054059044F00204761C3078F4
:1025C0002E2816D116F8010F44F004042A280DD045
:1025D0006FF02F023078A0F13003092B09D807EBF8
:1025E000870302EB4303C718761CF3E759F8047B13
:1025F000761C30786C280FD006DC4C2817D0682861
:102600000DD06A2814D104E0742810D07A280FD194
:102610000DE044F400140AE044F4801401E044F4B2
:1026200040147278824202D104F58014761C761C24
:10263000307866280BD013DC582877D009DC0028C6
:1026400075D04528F6D04628F4D047281AD19DE108
:1026500018E0632835D0642879D0652812D195E137
:10266000702873D008DC6728F1D069286FD06E28F5
:102670000DD06F2806D1B5E073282CD0752875D001
:10268000782874D05A46179990476D1C75E1C4F3A9
:102690000250022809D003280DD0D9F800100428D0
:1026A0000DD00D6009F1040967E1D9F80010EA17AF
:1026B000C1E90052F6E7D9F800100D80F2E70D707D
:1026C000F0E719F8041B8DF8001000208DF80100C8
:1026D000EA46012003E059F804AB4FF0FF306107F0
:1026E0004FF0000102D40DE008F101018846B94223
:1026F0000FDA8045F8DB1AF808100029F4D108E059
:1027000008F1010188468142FADB1AF80810002915
:10271000F6D105985B46A0EB080721463846179A84
:1027200000F094FA284400EB080507E04DE029E1A9
:102730000DE01AF8010B5A4617999047B8F10108B5
:10274000F7D25B4621463846179A13E142E00A2247
:102750000092C4F302524FF0000A022A08D059F83E
:1027600004CB032A4FEAEC710AD00DE029E02AE0FD
:1027700009F1070121F00702F2E802C1914609E0E0
:102780000FFA8CFC4FEAEC71042A03D14FFA8CFC4F
:102790004FEAEC71002907DA0A460021DCF1000C4F
:1027A00061EB02012D2202E0220504D52B228DF8D7
:1027B0000420012203E0E20701D02022F7E790463F
:1027C00059E00A2102E010220DE010214FF0000A2A
:1027D00000910BE010224FF0000A44F00404082797
:1027E000009203E008224FF0000A0092C4F3025264
:1027F000022A05D059F804CB0021032A08D009E0A9
:1028000009F1070121F00702F2E802C1914605E053
:102810001FFA8CFC042A01D10CF0FF0C4FF00008C9
:10282000220728D5702806D0009B83F0100353EAB6
:102830000A0305D00EE040228DF80420012208E0B2
:102840005CEA010206D030228DF804208DF80500E4
:1028500002229046009B83F0080353EA0A030AD140
:102860005CEA010201D1620705D530228DF804200F
:102870004FF001087F1E582804D034A003900EA802
:1028800002900DE036A0F9E753466046009AFDF746
:1028900097FC84460398825C0298401E0290027066
:1028A0005CEA0100F0D1029806A9081A00F1200A9A
:1028B000600702D524F4803400E00127574502DD8B
:1028C000A7EB0A0000E0002000EB0A010090059849
:1028D0004144401A0590E00306D45B462146179A0E
:1028E000059800F0B3F90544002706E001A85A4610
:1028F000C05D179990476D1C7F1C4745F6DBE003D0
:102900000CD55B462146179A059800F09FF90544BF
:1029100004E030205A46179990476D1C0099481ED4
:1029200000900029F5DC08E0029802995A460078E8
:10293000491C0291179990476D1CBAF10001AAF148
:10294000010AF1DC65E10000092801003031323371
:1029500034353637383961626364656600000000DB
:1029600030313233343536373839414243444546C5
:102970000000000000F058F90544761C307800286B
:102980007FF4ECAD19B02846BDE8F08F620700D4A3
:10299000062709F1070222F0070CFCE80223E146B2
:1029A00003F000485FEA080C02D00FF2702C0DE033
:1029B0005FEA045C02D50FF2682C07E05FEAC47C92
:1029C00002D00FF2602C01E0AFF2700C4FF0FF3834
:1029D00023F00043CDF850C065280CD006DC452814
:1029E00009D046281DD047283DD13DE0662818D0A3
:1029F00067287ED138E00021112F01DB112000E093
:102A0000781CCDE9000106A90EA8FFF7DDFCDDE981
:102A10000F010E9A03910021009207F1010A04911F
:102A20004DE04FF000400097CDE9011006A90EA837
:102A3000FFF7CAFCDDE90F0203920E9B11990022F9
:102A4000DDF80CA00093049211B9791C00EB010A87
:102A5000B7EB0A0004D4C0F1FF3007F1010A04907B
:102A6000AAEB0700019044E0012F00DA01270021C2
:102A7000112F01DD112000E03846CDE9000106A943
:102A80000EA8FFF7A1FCDDE90F010E9A03910021CA
:102A900004910092BA4621070CD40399514500DAFB
:102AA0008A46BAF1010F05DD009AAAF10101515CD5
:102AB000302908D0B84202DA10F1040F06DA0121F9
:102AC000CDE9011015E0AAF10101E9E7002805DCD4
:102AD000049901440491AAEB000102E0411C514514
:102AE00000DD8A460499401A401C01904FF00040D6
:102AF0000290200704D40198504501DBCDF80480F2
:102B000000208DF84F0002980DF14F07B0F1004FF3
:102B100025D02B200E9002984FF0020800280CDAE6
:102B2000404202902D200E9007E00A210298FDF706
:102B3000CFFC3031029007F8011DB8F10001A8F177
:102B40000108F2DC02980028EFD1791E0E98087077
:102B5000307800F0200040F0450007F8020D12A880
:102B6000C01B00F107081498007800B1012000EBA9
:102B70000A01019801EBE07105984144401A401E9A
:102B80000590E00306D45B462146179A059800F0AD
:102B90005DF805441498007818B15A461799904783
:102BA0006D1CE00324D55B462146179A059800F07A
:102BB0004DF805441CE00498002807DBDDE903011B
:102BC000884203DD0098405C179901E01799302096
:102BD0005A469047049805F10105401C049001985D
:102BE000401E019004D12E205A46179990476D1C23
:102BF000BAF10001AAF1010ADDDC05E017F8010BCA
:102C00005A46179990476D1CB8F10001A8F10108C8
:102C1000F4DC5B462146179A0598ABE62D000000D0
:102C20002B000000200000002DE9F04104460025A3
:102C30001E461746880404D405E039462020B047D4
:102C40006D1C641EF9D52846BDE8F0812DE9F041E0
:102C5000044600251E469046C80301D5302700E0F3
:102C60002027880404D505E041463846B0476D1C4E
:102C7000641EF9D52846BDE8F0810A68531C0B6034
:102C80001070704730B51E491E4A0D460B7800245F
:102C900095ED010A632B13D84D789DB100EE900A93
:102CA00042F823005B1CF8EEE00AD8B270EE200A6E
:102CB00000EE100AC1ED010A0870B8EE401A1CE0DF
:102CC0000C704C700B7852F8235000EE905AF8EECE
:102CD000E00A70EE600A00EE100AB8EEC00A70EE6C
:102CE000800AC1ED010A42F823005B1CD8B20870CB
:102CF000632800D90C709FED041A80EE810A30BD64
:102D0000000000204C0000200000C84208B5FEF77B
:102D1000CDF8FFF75BF92348016841F0010101603C
:102D2000016801F001010091016841F002010160B8
:102D3000006800F002000090FEF7C2FFFEF7ECFF13
:102D4000F3EE001A9FED181AF0EE080AB3EE040A2B
:102D500000F08EF8FEF7D8F91449B0FBF1F0FEF759
:102D6000B9FBFEF7F7FEFFF751F8FF20FFF732F847
:102D70000020FFF72FF80E48FEF784FC0D4CA068EA
:102D8000FDF777FB41EC100B094853EC102B0AA11F
:102D90004030FFF7E5FA064A002140320520FFF7F0
:102DA00099F8ECE7303802400000000040420F0084
:102DB0002402002000000020555F6F7574203D2024
:102DC000252E346620000000DFED210A10B520EE2C
:102DD000200ADFED200A20EE200A10EE100AFDF78F
:102DE00048FB9FED1D1B53EC112BFDF72CFA9FEDBB
:102DF0001C1B53EC112BFDF7CDFAFDF74DFB00EE3C
:102E0000100A1948B0EE002A80ED000A1748D0EDEC
:102E1000070A30EEC00A80ED030AD0EC020A70EE19
:102E2000811A90ED021A71EE811A41EE020A90EDBC
:102E3000042A61EE801A40EEC21AD0ED050A41EE76
:102E4000201AC0ED061A80ED040A80ED050A10BDB7
:102E50000000803933335340FCA9F1D24D62403F2A
:102E60000EBE30992A18953F08000020240000204B
:102E70000B4880EC030A9FED0B0A80ED030A80EDFE
:102E8000040A80ED050A80ED060A9FED070AC0EDF1
:102E9000071A80ED080AB2EE040A80ED090A7047AD
:102EA000240000200000000000A0204500000000D9
:102EB0000000000000000000000000000000000012
:102EC000000000000000000000000000000202FA04
:102ED000FAAAAAFFFFAAAAFAFA0202000042727234
:102EE0003A7A424B5B52626213776600203C1CFFC9
:102EF000FFB0B424243F3FE4E4242420020203FF73
:102F0000FF0001051D59C1FF7F010101000000F80C
:102F1000F8484C4F4B4A4848F8F80000000000FFC2
:102F2000FF44444444444444FFFF0000202424E47C
:102F3000E42424243010FFFF10F0F000081C1F0BC5
:102F40000C0D4F6E341C0F23607F3F0080C060F873
:102F5000FF070200FFFFE0703C1C08000000007F3C
:102F60007F0406033F7F4040407878000000000067
:102F70000000000000000000000000000000000051
:102F80000000000000000000000000000000000041
:102F90000000000000000000000000000000000031
:102FA00000000000000000000000000010218670FA
:102FB000007E4A4A4A4A4A7E0000000002FE014062
:102FC0007F41417F41417F41417F40000000FC043F
:102FD0002424FCA5A6A4FC242424040080601F80D3
:102FE0008042462A12122A2642C04000080808FFE2
:102FF0008848009848280A2C48D808000242817F57
:103000000000404242427E424242400000504F4A4D
:1030100048FF48484800FC0000FF000000003F0156
:1030200001FF21613F000F40807F000000908CA4D1
:10303000A4A4A5A6A4A4A4A4948C04000080402069
:1030400018070000003F404040700000000474D4A6
:10305000FFD47404100CB744B40C04000042437A4B
:103060004342437E4B4B4A4A42430100080808084A
:103070000808F94A4C4848C8080808004040201091
:103080000C0300002040403F0000000000202C24E2
:103090006474ADA6E43424242C24000000242425E8
:1030A00015150DFE040D171424642400000000F80B
:1030B00048484C4B4A484848F8000000000000FFD0
:1030C0004444444444444444FF000000202424E495
:1030D000242424201010FF1010F00000081C0B08FE
:1030E0000C054E24100C0320403F0000080808FF88
:1030F0008848009848280A2C48D808000242817F56
:103100000000404242427E424242400000504F4A4C
:1031100048FF48484800FC0000FF000000003F0155
:1031200001FF21613F000F40807F00000807FAAADD
:10313000AEAAAAA8ACABAAFE0A02020008088B6AD3
:103140001E0A0A0A0AFE0A0B08080800106001C6D7
:103150003000101010FF1010101000000404FE01C9
:10316000004161514D43414151E101004041CE04D4
:10317000008040BE828282BEC040400000007F20AE
:10318000908040432C10102C43C0400020212EE49E
:10319000000020202020FF20202020000000007FB1
:1031A000201008000000FF00000000000000F848A8
:1031B000484848FF48484848F800000000000F040D
:1031C0000404043F444444444F40700000000202A1
:1031D000020202E2120A060200800000010101015F
:1031E0000141817F01010101010101000020202234
:1031F00022E2222222E2222222202000004020106D
:103200000C030000003F4040404070004020F80F99
:1032100082601E1410FF1010101000000000FF004C
:103220000101010101FF0101010101000000000095
:103230007E4848484848484848CC080000040404F0
:103240000404040404244644201F0000849494FFD2
:10325000949480242424FC1213120000201806FFEA
:10326000021C0A0202023F41414171001010D0FECF
:10327000509000101010D0FE10101000080601FF32
:10328000000110080443807F000000009088A7A27E
:10329000A6BAA2F8A7A2A6BAA282800000040404DB
:1032A000040C340444847F04040400000000000083
:1032B00000000000002F00000000070007000014BD
:1032C0007F147F1400242A7F2A12006264081323CB
:1032D00000364955225000000503000000001C2262
:1032E0004100000041221C000014083E08140008A0
:1032F000083E0808000000A0600000080808080850
:10330000000060600000002010080402003E5149E7
:10331000453E0000427F4000004261514946002185
:1033200041454B31001814127F100027454545399F
:10333000003C4A49493000017109050300364949FA
:10334000493600064949291E0000363600000000B3
:1033500056360000000814224100001414141414FE
:1033600000004122140800020151090600324959A7
:10337000513E007C1211127C007F49494936003EC3
:1033800041414122007F4141221C007F494949417E
:10339000007F09090901003E4149497A007F080878
:1033A000087F0000417F4100002040413F01007F35
:1033B00008142241007F40404040007F020C027F01
:1033C000007F0408107F003E4141413E007F090913
:1033D0000906003E4151215E007F09192946004639
:1033E000494949310001017F0101003F4040403F10
:1033F000001F2040201F003F4038403F006314085A
:103400001463000708700807006151494543000034
:103410007F41410000552A552A55000041417F0057
:10342000000402010204004040404040000001024C
:103430000400002054545478007F48444438003835
:103440004444442000384444487F003854545418BD
:1034500000087E0901020018A4A4A47C007F0804CF
:1034600004780000447D4000004080847D00007F9F
:10347000102844000000417F4000007C04180478BC
:10348000007C0804047800384444443800FC2424B8
:1034900024180018242418FC007C080404080048A0
:1034A0005454542000043F444020003C4040207CC1
:1034B000001C2040201C003C4030403C00442810B0
:1034C0002844001CA0A0A07C004464544C44141464
:1034D000141414140000000000000000000000009C
:1034E00000000000000000F80000000000000033B1
:1034F0003000000000100C06100C06000000000058
:103500000000000040C07840C0784000043F040440
:103510003F040400007088FC08300000001820FF01
:10352000211E0000F008F000E018000000211C033C
:103530001E211E0000F00888700000001E212324B8
:103540001927211010160E000000000000000000D6
:1035500000000000000000E0180402000000000766
:103560001820400000020418E0000000004020186D
:1035700007000000404080F0804040000202010F40
:1035800001020200000000F0000000000101011F24
:1035900001010100000000000000000080B0700088
:1035A0000000000000000000000000000001010118
:1035B00001010101000000000000000000303000A7
:1035C0000000000000000000806018040060180681
:1035D0000100000000E010080810E000000F1020BB
:1035E00020100F00001010F8000000000020203F05
:1035F000202000000070080808887000003028248F
:10360000222130000030088888483000001820202F
:1036100020110E000000C02010F800000007042454
:10362000243F240000F80888880808000019212099
:1036300020110E0000E0108888180000000F1120F3
:1036400020110E0000380808C83808000000003FAC
:10365000000000000070880808887000001C22210B
:1036600021221C0000E010080810E00000003122B8
:1036700022110F00000000C0C00000000000003058
:1036800030000000000000800000000000008060AA
:10369000000000000000804020100800000102042B
:1036A0000810200040404040404040000404040412
:1036B00004040400000810204080000000201008CE
:1036C00004020100007048080808F0000000003003
:1036D00036010000C030C828E810E0000718272491
:1036E00023140B000000C038E0000000203C23023F
:1036F0000227382008F8888888700000203F2020A2
:1037000020110E00C03008080808380007182020D3
:103710002010080008F808080810E000203F2020CA
:1037200020100F0008F88888E8081000203F2020AB
:103730002320180008F88888E8081000203F20009F
:1037400003000000C03008080838000007182020D7
:10375000221E020008F808000008F808203F210196
:1037600001213F20000808F8080800000020203F41
:103770002020000000000808F8080800C0808080B1
:103780007F00000008F888C028180800203F2001AA
:103790002638200008F8080000000000203F202004
:1037A0002020300008F8F800F8F80800203F003F1B
:1037B000003F200008F830C00008F808203F200033
:1037C00007183F00E01008080810E0000F10202044
:1037D00020100F0008F808080808F000203F210119
:1037E00001010000E01008080810E0000F18242470
:1037F00038504F0008F8888888887000203F2000E3
:10380000030C302000708808080838000038202198
:1038100021221C00180808F8080818000000203FA2
:103820002000000008F808000008F808001F202009
:1038300020201F000878880000C8380800000738DA
:103840000E010000F80800F80008F800033C07002B
:10385000073C0300081868808068180820302C0393
:10386000032C30200838C800C83808000000203F6A
:103870002000000010080808C83808002038262159
:1038800020201800000000FE020202000000007F5D
:1038900040404000000C30C000000000000000016B
:1038A0000638C00000020202FE0000000040404056
:1038B0007F0000000000040202020400000000007B
:1038C00000000000000000000000000080808080F8
:1038D00080808080000202040000000000000000E0
:1038E0000000000000008080808000000019242279
:1038F00022223F2008F8008080000000003F1120B5
:1039000020110E000000008080800000000E1120B9
:1039100020201100000000808088F800000E112097
:1039200020103F200000808080800000001F2222A5
:1039300022221300008080F0888888180020203F11
:10394000202000000000808080808000006B949424
:103950009493600008F8008080800000203F2100E0
:1039600000203F2000809898000000000020203FA9
:1039700020200000000000809898000000C0808097
:10398000807F000008F8000080808000203F240233
:103990002D302000000808F8000000000020203F23
:1039A000202000008080808080808000203F2000D8
:1039B0003F20003F8080008080800000203F210069
:1039C00000203F200000808080800000001F202019
:1039D00020201F00808000808000000080FFA12048
:1039E00020110E000000008080808000000E112059
:1039F00020A0FF80808080008080800020203F21E8
:103A0000200001000000808080808000003324249A
:103A100024241900008080E0808000000000001F46
:103A2000202000008080000000808000001F2020F7
:103A300020103F20808080000080808000010E30B8
:103A40000806010080800080008080800F300C0319
:103A50000C300F0000808000808080000020312E1C
:103A60000E312000808080000080808080818E70F8
:103A70001806010000808080808080000021302CAA
:103A80002221300000000000807C020200000000C3
:103A9000003F404000000000FF0000000000000068
:103AA000FF0000000002027C800000000040403F58
:103AB00000000000000601010202040400000000F2
:103AC00000000000000000000000000001020304EC
:103AD00006070809F43A000800000020240000004E
:103AE000A8230008183B000824000020540600000A
:103AF000B8230008000100000000000000000000E2
:103B000000000000000000000100000010000000A4
:083B1000000000000024F40095
:040000050800018965
:00000001FF
